{"abi":[{"type":"constructor","inputs":[{"name":"wgtAddress","type":"address","internalType":"address"},{"name":"admin","type":"address","internalType":"address"}],"stateMutability":"nonpayable"},{"type":"function","name":"ADMIN_ROLE","inputs":[],"outputs":[{"name":"","type":"bytes32","internalType":"bytes32"}],"stateMutability":"view"},{"type":"function","name":"DEFAULT_ADMIN_ROLE","inputs":[],"outputs":[{"name":"","type":"bytes32","internalType":"bytes32"}],"stateMutability":"view"},{"type":"function","name":"addItem","inputs":[{"name":"itemId","type":"uint256","internalType":"uint256"},{"name":"wgtPrice","type":"uint256","internalType":"uint256"},{"name":"quantity","type":"uint256","internalType":"uint256"}],"outputs":[],"stateMutability":"nonpayable"},{"type":"function","name":"buyItem","inputs":[{"name":"itemId","type":"uint256","internalType":"uint256"}],"outputs":[],"stateMutability":"nonpayable"},{"type":"function","name":"getRoleAdmin","inputs":[{"name":"role","type":"bytes32","internalType":"bytes32"}],"outputs":[{"name":"","type":"bytes32","internalType":"bytes32"}],"stateMutability":"view"},{"type":"function","name":"grantRole","inputs":[{"name":"role","type":"bytes32","internalType":"bytes32"},{"name":"account","type":"address","internalType":"address"}],"outputs":[],"stateMutability":"nonpayable"},{"type":"function","name":"hasRole","inputs":[{"name":"role","type":"bytes32","internalType":"bytes32"},{"name":"account","type":"address","internalType":"address"}],"outputs":[{"name":"","type":"bool","internalType":"bool"}],"stateMutability":"view"},{"type":"function","name":"items","inputs":[{"name":"","type":"uint256","internalType":"uint256"}],"outputs":[{"name":"wgtPrice","type":"uint256","internalType":"uint256"},{"name":"quantity","type":"uint256","internalType":"uint256"},{"name":"active","type":"bool","internalType":"bool"}],"stateMutability":"view"},{"type":"function","name":"renounceRole","inputs":[{"name":"role","type":"bytes32","internalType":"bytes32"},{"name":"callerConfirmation","type":"address","internalType":"address"}],"outputs":[],"stateMutability":"nonpayable"},{"type":"function","name":"revokeRole","inputs":[{"name":"role","type":"bytes32","internalType":"bytes32"},{"name":"account","type":"address","internalType":"address"}],"outputs":[],"stateMutability":"nonpayable"},{"type":"function","name":"setItemActive","inputs":[{"name":"itemId","type":"uint256","internalType":"uint256"},{"name":"active","type":"bool","internalType":"bool"}],"outputs":[],"stateMutability":"nonpayable"},{"type":"function","name":"supportsInterface","inputs":[{"name":"interfaceId","type":"bytes4","internalType":"bytes4"}],"outputs":[{"name":"","type":"bool","internalType":"bool"}],"stateMutability":"view"},{"type":"function","name":"updateItem","inputs":[{"name":"itemId","type":"uint256","internalType":"uint256"},{"name":"wgtPrice","type":"uint256","internalType":"uint256"},{"name":"quantity","type":"uint256","internalType":"uint256"}],"outputs":[],"stateMutability":"nonpayable"},{"type":"function","name":"wgt","inputs":[],"outputs":[{"name":"","type":"address","internalType":"contract WGTToken"}],"stateMutability":"view"},{"type":"event","name":"ItemPurchased","inputs":[{"name":"buyer","type":"address","indexed":true,"internalType":"address"},{"name":"itemId","type":"uint256","indexed":true,"internalType":"uint256"},{"name":"quantity","type":"uint256","indexed":false,"internalType":"uint256"},{"name":"timestamp","type":"uint256","indexed":false,"internalType":"uint256"}],"anonymous":false},{"type":"event","name":"RoleAdminChanged","inputs":[{"name":"role","type":"bytes32","indexed":true,"internalType":"bytes32"},{"name":"previousAdminRole","type":"bytes32","indexed":true,"internalType":"bytes32"},{"name":"newAdminRole","type":"bytes32","indexed":true,"internalType":"bytes32"}],"anonymous":false},{"type":"event","name":"RoleGranted","inputs":[{"name":"role","type":"bytes32","indexed":true,"internalType":"bytes32"},{"name":"account","type":"address","indexed":true,"internalType":"address"},{"name":"sender","type":"address","indexed":true,"internalType":"address"}],"anonymous":false},{"type":"event","name":"RoleRevoked","inputs":[{"name":"role","type":"bytes32","indexed":true,"internalType":"bytes32"},{"name":"account","type":"address","indexed":true,"internalType":"address"},{"name":"sender","type":"address","indexed":true,"internalType":"address"}],"anonymous":false},{"type":"error","name":"AccessControlBadConfirmation","inputs":[]},{"type":"error","name":"AccessControlUnauthorizedAccount","inputs":[{"name":"account","type":"address","internalType":"address"},{"name":"neededRole","type":"bytes32","internalType":"bytes32"}]}],"bytecode":{"object":"0x60a060405234801561000f575f5ffd5b506040516113813803806113818339818101604052810190610031919061026d565b8173ffffffffffffffffffffffffffffffffffffffff1660808173ffffffffffffffffffffffffffffffffffffffff16815250506100775f5f1b826100b060201b60201c565b506100a87fa49807205ce4d355092ef5a8a18f56e8913cf4a201fbe287825b095693c21775826100b060201b60201c565b5050506102ab565b5f6100c183836101a560201b60201c565b61019b5760015f5f8581526020019081526020015f205f015f8473ffffffffffffffffffffffffffffffffffffffff1673ffffffffffffffffffffffffffffffffffffffff1681526020019081526020015f205f6101000a81548160ff02191690831515021790555061013861020860201b60201c565b73ffffffffffffffffffffffffffffffffffffffff168273ffffffffffffffffffffffffffffffffffffffff16847f2f8788117e7eff1d82e926ec794901d17c78024a50270940304540a733656f0d60405160405180910390a46001905061019f565b5f90505b92915050565b5f5f5f8481526020019081526020015f205f015f8373ffffffffffffffffffffffffffffffffffffffff1673ffffffffffffffffffffffffffffffffffffffff1681526020019081526020015f205f9054906101000a900460ff16905092915050565b5f33905090565b5f5ffd5b5f73ffffffffffffffffffffffffffffffffffffffff82169050919050565b5f61023c82610213565b9050919050565b61024c81610232565b8114610256575f5ffd5b50565b5f8151905061026781610243565b92915050565b5f5f604083850312156102835761028261020f565b5b5f61029085828601610259565b92505060206102a185828601610259565b9150509250929050565b6080516110b76102ca5f395f8181610579015261078901526110b75ff3fe608060405234801561000f575f5ffd5b50600436106100e8575f3560e01c806386323e8a1161008a578063bfb231d211610064578063bfb231d214610246578063d547741f14610278578063e64731fa14610294578063e7fb74c7146102b0576100e8565b806386323e8a146101da57806391d14854146101f8578063a217fddf14610228576100e8565b806336568abe116100c657806336568abe14610168578063539447d41461018457806375b238fc146101a0578063798a712a146101be576100e8565b806301ffc9a7146100ec578063248a9ca31461011c5780632f2ff15d1461014c575b5f5ffd5b61010660048036038101906101019190610b6b565b6102cc565b6040516101139190610bb0565b60405180910390f35b61013660048036038101906101319190610bfc565b610345565b6040516101439190610c36565b60405180910390f35b61016660048036038101906101619190610ca9565b610361565b005b610182600480360381019061017d9190610ca9565b610383565b005b61019e60048036038101906101999190610d1a565b6103fe565b005b6101a861045f565b6040516101b59190610c36565b60405180910390f35b6101d860048036038101906101d39190610d1a565b610483565b005b6101e2610577565b6040516101ef9190610dc5565b60405180910390f35b610212600480360381019061020d9190610ca9565b61059b565b60405161021f9190610bb0565b60405180910390f35b6102306105fe565b60405161023d9190610c36565b60405180910390f35b610260600480360381019061025b9190610dde565b610604565b60405161026f93929190610e18565b60405180910390f35b610292600480360381019061028d9190610ca9565b610636565b005b6102ae60048036038101906102a99190610e77565b610658565b005b6102ca60048036038101906102c59190610dde565b6106b2565b005b5f7f7965db0b000000000000000000000000000000000000000000000000000000007bffffffffffffffffffffffffffffffffffffffffffffffffffffffff1916827bffffffffffffffffffffffffffffffffffffffffffffffffffffffff1916148061033e575061033d8261086b565b5b9050919050565b5f5f5f8381526020019081526020015f20600101549050919050565b61036a82610345565b610373816108d4565b61037d83836108e8565b50505050565b61038b6109d1565b73ffffffffffffffffffffffffffffffffffffffff168173ffffffffffffffffffffffffffffffffffffffff16146103ef576040517f6697b23200000000000000000000000000000000000000000000000000000000815260040160405180910390fd5b6103f982826109d8565b505050565b7fa49807205ce4d355092ef5a8a18f56e8913cf4a201fbe287825b095693c21775610428816108d4565b8260015f8681526020019081526020015f205f01819055508160015f8681526020019081526020015f206001018190555050505050565b7fa49807205ce4d355092ef5a8a18f56e8913cf4a201fbe287825b095693c2177581565b7fa49807205ce4d355092ef5a8a18f56e8913cf4a201fbe287825b095693c217756104ad816108d4565b60015f8581526020019081526020015f206002015f9054906101000a900460ff161561050e576040517f08c379a000000000000000000000000000000000000000000000000000000000815260040161050590610f0f565b60405180910390fd5b60405180606001604052808481526020018381526020016001151581525060015f8681526020019081526020015f205f820151815f0155602082015181600101556040820151816002015f6101000a81548160ff02191690831515021790555090505050505050565b7f000000000000000000000000000000000000000000000000000000000000000081565b5f5f5f8481526020019081526020015f205f015f8373ffffffffffffffffffffffffffffffffffffffff1673ffffffffffffffffffffffffffffffffffffffff1681526020019081526020015f205f9054906101000a900460ff16905092915050565b5f5f1b81565b6001602052805f5260405f205f91509050805f015490806001015490806002015f9054906101000a900460ff16905083565b61063f82610345565b610648816108d4565b61065283836109d8565b50505050565b7fa49807205ce4d355092ef5a8a18f56e8913cf4a201fbe287825b095693c21775610682816108d4565b8160015f8581526020019081526020015f206002015f6101000a81548160ff021916908315150217905550505050565b5f60015f8381526020019081526020015f206040518060600160405290815f820154815260200160018201548152602001600282015f9054906101000a900460ff16151515158152505090508060400151610742576040517f08c379a000000000000000000000000000000000000000000000000000000000815260040161073990610f77565b60405180910390fd5b5f815f015111610787576040517f08c379a000000000000000000000000000000000000000000000000000000000815260040161077e90610fdf565b60405180910390fd5b7f000000000000000000000000000000000000000000000000000000000000000073ffffffffffffffffffffffffffffffffffffffff166379cc679033835f01516040518363ffffffff1660e01b81526004016107e592919061100c565b5f604051808303815f87803b1580156107fc575f5ffd5b505af115801561080e573d5f5f3e3d5ffd5b50505050813373ffffffffffffffffffffffffffffffffffffffff167f2ff487d8fb1812f5d8a4602a340c48ce2d129f0ba25d788a2796fcdbcff930f683602001514260405161085f929190611033565b60405180910390a35050565b5f7f01ffc9a7000000000000000000000000000000000000000000000000000000007bffffffffffffffffffffffffffffffffffffffffffffffffffffffff1916827bffffffffffffffffffffffffffffffffffffffffffffffffffffffff1916149050919050565b6108e5816108e06109d1565b610ac1565b50565b5f6108f3838361059b565b6109c75760015f5f8581526020019081526020015f205f015f8473ffffffffffffffffffffffffffffffffffffffff1673ffffffffffffffffffffffffffffffffffffffff1681526020019081526020015f205f6101000a81548160ff0219169083151502179055506109646109d1565b73ffffffffffffffffffffffffffffffffffffffff168273ffffffffffffffffffffffffffffffffffffffff16847f2f8788117e7eff1d82e926ec794901d17c78024a50270940304540a733656f0d60405160405180910390a4600190506109cb565b5f90505b92915050565b5f33905090565b5f6109e3838361059b565b15610ab7575f5f5f8581526020019081526020015f205f015f8473ffffffffffffffffffffffffffffffffffffffff1673ffffffffffffffffffffffffffffffffffffffff1681526020019081526020015f205f6101000a81548160ff021916908315150217905550610a546109d1565b73ffffffffffffffffffffffffffffffffffffffff168273ffffffffffffffffffffffffffffffffffffffff16847ff6391f5c32d9c69d2a47ea670b442974b53935d1edc7fd64eb21e047a839171b60405160405180910390a460019050610abb565b5f90505b92915050565b610acb828261059b565b610b0e5780826040517fe2517d3f000000000000000000000000000000000000000000000000000000008152600401610b0592919061105a565b60405180910390fd5b5050565b5f5ffd5b5f7fffffffff0000000000000000000000000000000000000000000000000000000082169050919050565b610b4a81610b16565b8114610b54575f5ffd5b50565b5f81359050610b6581610b41565b92915050565b5f60208284031215610b8057610b7f610b12565b5b5f610b8d84828501610b57565b91505092915050565b5f8115159050919050565b610baa81610b96565b82525050565b5f602082019050610bc35f830184610ba1565b92915050565b5f819050919050565b610bdb81610bc9565b8114610be5575f5ffd5b50565b5f81359050610bf681610bd2565b92915050565b5f60208284031215610c1157610c10610b12565b5b5f610c1e84828501610be8565b91505092915050565b610c3081610bc9565b82525050565b5f602082019050610c495f830184610c27565b92915050565b5f73ffffffffffffffffffffffffffffffffffffffff82169050919050565b5f610c7882610c4f565b9050919050565b610c8881610c6e565b8114610c92575f5ffd5b50565b5f81359050610ca381610c7f565b92915050565b5f5f60408385031215610cbf57610cbe610b12565b5b5f610ccc85828601610be8565b9250506020610cdd85828601610c95565b9150509250929050565b5f819050919050565b610cf981610ce7565b8114610d03575f5ffd5b50565b5f81359050610d1481610cf0565b92915050565b5f5f5f60608486031215610d3157610d30610b12565b5b5f610d3e86828701610d06565b9350506020610d4f86828701610d06565b9250506040610d6086828701610d06565b9150509250925092565b5f819050919050565b5f610d8d610d88610d8384610c4f565b610d6a565b610c4f565b9050919050565b5f610d9e82610d73565b9050919050565b5f610daf82610d94565b9050919050565b610dbf81610da5565b82525050565b5f602082019050610dd85f830184610db6565b92915050565b5f60208284031215610df357610df2610b12565b5b5f610e0084828501610d06565b91505092915050565b610e1281610ce7565b82525050565b5f606082019050610e2b5f830186610e09565b610e386020830185610e09565b610e456040830184610ba1565b949350505050565b610e5681610b96565b8114610e60575f5ffd5b50565b5f81359050610e7181610e4d565b92915050565b5f5f60408385031215610e8d57610e8c610b12565b5b5f610e9a85828601610d06565b9250506020610eab85828601610e63565b9150509250929050565b5f82825260208201905092915050565b7f4974656d207961206578697374650000000000000000000000000000000000005f82015250565b5f610ef9600e83610eb5565b9150610f0482610ec5565b602082019050919050565b5f6020820190508181035f830152610f2681610eed565b9050919050565b7f4974656d206e6f20646973706f6e69626c6500000000000000000000000000005f82015250565b5f610f61601283610eb5565b9150610f6c82610f2d565b602082019050919050565b5f6020820190508181035f830152610f8e81610f55565b9050919050565b7f4974656d206e6f20636f6e666967757261646f000000000000000000000000005f82015250565b5f610fc9601383610eb5565b9150610fd482610f95565b602082019050919050565b5f6020820190508181035f830152610ff681610fbd565b9050919050565b61100681610c6e565b82525050565b5f60408201905061101f5f830185610ffd565b61102c6020830184610e09565b9392505050565b5f6040820190506110465f830185610e09565b6110536020830184610e09565b9392505050565b5f60408201905061106d5f830185610ffd565b61107a6020830184610c27565b939250505056fea2646970667358221220fffd3ed21aac8fa6ab10ac7e0cd6999950067c746d1925c8a49cdf1193a96f9964736f6c63430008230033","linkReferences":{}},"methodIdentifiers":{"ADMIN_ROLE()":"75b238fc","DEFAULT_ADMIN_ROLE()":"a217fddf","addItem(uint256,uint256,uint256)":"798a712a","buyItem(uint256)":"e7fb74c7","getRoleAdmin(bytes32)":"248a9ca3","grantRole(bytes32,address)":"2f2ff15d","hasRole(bytes32,address)":"91d14854","items(uint256)":"bfb231d2","renounceRole(bytes32,address)":"36568abe","revokeRole(bytes32,address)":"d547741f","setItemActive(uint256,bool)":"e64731fa","supportsInterface(bytes4)":"01ffc9a7","updateItem(uint256,uint256,uint256)":"539447d4","wgt()":"86323e8a"},"id":31}