{"abi":[{"type":"constructor","inputs":[{"name":"admin","type":"address","internalType":"address"}],"stateMutability":"nonpayable"},{"type":"function","name":"DEFAULT_ADMIN_ROLE","inputs":[],"outputs":[{"name":"","type":"bytes32","internalType":"bytes32"}],"stateMutability":"view"},{"type":"function","name":"MINTER_ROLE","inputs":[],"outputs":[{"name":"","type":"bytes32","internalType":"bytes32"}],"stateMutability":"view"},{"type":"function","name":"allowance","inputs":[{"name":"owner","type":"address","internalType":"address"},{"name":"spender","type":"address","internalType":"address"}],"outputs":[{"name":"","type":"uint256","internalType":"uint256"}],"stateMutability":"view"},{"type":"function","name":"approve","inputs":[{"name":"spender","type":"address","internalType":"address"},{"name":"value","type":"uint256","internalType":"uint256"}],"outputs":[{"name":"","type":"bool","internalType":"bool"}],"stateMutability":"nonpayable"},{"type":"function","name":"balanceOf","inputs":[{"name":"account","type":"address","internalType":"address"}],"outputs":[{"name":"","type":"uint256","internalType":"uint256"}],"stateMutability":"view"},{"type":"function","name":"burn","inputs":[{"name":"value","type":"uint256","internalType":"uint256"}],"outputs":[],"stateMutability":"nonpayable"},{"type":"function","name":"burnFrom","inputs":[{"name":"account","type":"address","internalType":"address"},{"name":"value","type":"uint256","internalType":"uint256"}],"outputs":[],"stateMutability":"nonpayable"},{"type":"function","name":"decimals","inputs":[],"outputs":[{"name":"","type":"uint8","internalType":"uint8"}],"stateMutability":"view"},{"type":"function","name":"getRoleAdmin","inputs":[{"name":"role","type":"bytes32","internalType":"bytes32"}],"outputs":[{"name":"","type":"bytes32","internalType":"bytes32"}],"stateMutability":"view"},{"type":"function","name":"grantRole","inputs":[{"name":"role","type":"bytes32","internalType":"bytes32"},{"name":"account","type":"address","internalType":"address"}],"outputs":[],"stateMutability":"nonpayable"},{"type":"function","name":"hasRole","inputs":[{"name":"role","type":"bytes32","internalType":"bytes32"},{"name":"account","type":"address","internalType":"address"}],"outputs":[{"name":"","type":"bool","internalType":"bool"}],"stateMutability":"view"},{"type":"function","name":"mint","inputs":[{"name":"to","type":"address","internalType":"address"},{"name":"amount","type":"uint256","internalType":"uint256"}],"outputs":[],"stateMutability":"nonpayable"},{"type":"function","name":"name","inputs":[],"outputs":[{"name":"","type":"string","internalType":"string"}],"stateMutability":"view"},{"type":"function","name":"renounceRole","inputs":[{"name":"role","type":"bytes32","internalType":"bytes32"},{"name":"callerConfirmation","type":"address","internalType":"address"}],"outputs":[],"stateMutability":"nonpayable"},{"type":"function","name":"revokeRole","inputs":[{"name":"role","type":"bytes32","internalType":"bytes32"},{"name":"account","type":"address","internalType":"address"}],"outputs":[],"stateMutability":"nonpayable"},{"type":"function","name":"supportsInterface","inputs":[{"name":"interfaceId","type":"bytes4","internalType":"bytes4"}],"outputs":[{"name":"","type":"bool","internalType":"bool"}],"stateMutability":"view"},{"type":"function","name":"symbol","inputs":[],"outputs":[{"name":"","type":"string","internalType":"string"}],"stateMutability":"view"},{"type":"function","name":"totalSupply","inputs":[],"outputs":[{"name":"","type":"uint256","internalType":"uint256"}],"stateMutability":"view"},{"type":"function","name":"transfer","inputs":[{"name":"to","type":"address","internalType":"address"},{"name":"value","type":"uint256","internalType":"uint256"}],"outputs":[{"name":"","type":"bool","internalType":"bool"}],"stateMutability":"nonpayable"},{"type":"function","name":"transferFrom","inputs":[{"name":"from","type":"address","internalType":"address"},{"name":"to","type":"address","internalType":"address"},{"name":"value","type":"uint256","internalType":"uint256"}],"outputs":[{"name":"","type":"bool","internalType":"bool"}],"stateMutability":"nonpayable"},{"type":"event","name":"Approval","inputs":[{"name":"owner","type":"address","indexed":true,"internalType":"address"},{"name":"spender","type":"address","indexed":true,"internalType":"address"},{"name":"value","type":"uint256","indexed":false,"internalType":"uint256"}],"anonymous":false},{"type":"event","name":"RoleAdminChanged","inputs":[{"name":"role","type":"bytes32","indexed":true,"internalType":"bytes32"},{"name":"previousAdminRole","type":"bytes32","indexed":true,"internalType":"bytes32"},{"name":"newAdminRole","type":"bytes32","indexed":true,"internalType":"bytes32"}],"anonymous":false},{"type":"event","name":"RoleGranted","inputs":[{"name":"role","type":"bytes32","indexed":true,"internalType":"bytes32"},{"name":"account","type":"address","indexed":true,"internalType":"address"},{"name":"sender","type":"address","indexed":true,"internalType":"address"}],"anonymous":false},{"type":"event","name":"RoleRevoked","inputs":[{"name":"role","type":"bytes32","indexed":true,"internalType":"bytes32"},{"name":"account","type":"address","indexed":true,"internalType":"address"},{"name":"sender","type":"address","indexed":true,"internalType":"address"}],"anonymous":false},{"type":"event","name":"Transfer","inputs":[{"name":"from","type":"address","indexed":true,"internalType":"address"},{"name":"to","type":"address","indexed":true,"internalType":"address"},{"name":"value","type":"uint256","indexed":false,"internalType":"uint256"}],"anonymous":false},{"type":"error","name":"AccessControlBadConfirmation","inputs":[]},{"type":"error","name":"AccessControlUnauthorizedAccount","inputs":[{"name":"account","type":"address","internalType":"address"},{"name":"neededRole","type":"bytes32","internalType":"bytes32"}]},{"type":"error","name":"ERC20InsufficientAllowance","inputs":[{"name":"spender","type":"address","internalType":"address"},{"name":"allowance","type":"uint256","internalType":"uint256"},{"name":"needed","type":"uint256","internalType":"uint256"}]},{"type":"error","name":"ERC20InsufficientBalance","inputs":[{"name":"sender","type":"address","internalType":"address"},{"name":"balance","type":"uint256","internalType":"uint256"},{"name":"needed","type":"uint256","internalType":"uint256"}]},{"type":"error","name":"ERC20InvalidApprover","inputs":[{"name":"approver","type":"address","internalType":"address"}]},{"type":"error","name":"ERC20InvalidReceiver","inputs":[{"name":"receiver","type":"address","internalType":"address"}]},{"type":"error","name":"ERC20InvalidSender","inputs":[{"name":"sender","type":"address","internalType":"address"}]},{"type":"error","name":"ERC20InvalidSpender","inputs":[{"name":"spender","type":"address","internalType":"address"}]}],"bytecode":{"object":"0x608060405234801561000f575f5ffd5b50604051611d61380380611d6183398181016040528101906100319190610297565b6040518060400160405280600e81526020017f5741522047616d6520546f6b656e0000000000000000000000000000000000008152506040518060400160405280600381526020017f574754000000000000000000000000000000000000000000000000000000000081525081600390816100ac9190610510565b5080600490816100bc9190610510565b5050506100d15f5f1b826100d860201b60201c565b50506105df565b5f6100e983836101ce60201b60201c565b6101c457600160055f8581526020019081526020015f205f015f8473ffffffffffffffffffffffffffffffffffffffff1673ffffffffffffffffffffffffffffffffffffffff1681526020019081526020015f205f6101000a81548160ff02191690831515021790555061016161023260201b60201c565b73ffffffffffffffffffffffffffffffffffffffff168273ffffffffffffffffffffffffffffffffffffffff16847f2f8788117e7eff1d82e926ec794901d17c78024a50270940304540a733656f0d60405160405180910390a4600190506101c8565b5f90505b92915050565b5f60055f8481526020019081526020015f205f015f8373ffffffffffffffffffffffffffffffffffffffff1673ffffffffffffffffffffffffffffffffffffffff1681526020019081526020015f205f9054906101000a900460ff16905092915050565b5f33905090565b5f5ffd5b5f73ffffffffffffffffffffffffffffffffffffffff82169050919050565b5f6102668261023d565b9050919050565b6102768161025c565b8114610280575f5ffd5b50565b5f815190506102918161026d565b92915050565b5f602082840312156102ac576102ab610239565b5b5f6102b984828501610283565b91505092915050565b5f81519050919050565b7f4e487b71000000000000000000000000000000000000000000000000000000005f52604160045260245ffd5b7f4e487b71000000000000000000000000000000000000000000000000000000005f52602260045260245ffd5b5f600282049050600182168061033d57607f821691505b6020821081036103505761034f6102f9565b5b50919050565b5f819050815f5260205f209050919050565b5f6020601f8301049050919050565b5f82821b905092915050565b5f600883026103b27fffffffffffffffffffffffffffffffffffffffffffffffffffffffffffffffff82610377565b6103bc8683610377565b95508019841693508086168417925050509392505050565b5f819050919050565b5f819050919050565b5f6104006103fb6103f6846103d4565b6103dd565b6103d4565b9050919050565b5f819050919050565b610419836103e6565b61042d61042582610407565b848454610383565b825550505050565b5f5f905090565b610444610435565b61044f818484610410565b505050565b5f5b828110156104755761046a5f82840161043c565b600181019050610456565b505050565b601f8211156104c857828211156104c75761049481610356565b61049d83610368565b6104a685610368565b60208610156104b3575f90505b8083016104c282840382610454565b505050505b5b505050565b5f82821c905092915050565b5f6104e85f19846008026104cd565b1980831691505092915050565b5f61050083836104d9565b9150826002028217905092915050565b610519826102c2565b67ffffffffffffffff811115610532576105316102cc565b5b61053c8254610326565b61054782828561047a565b5f60209050601f831160018114610578575f8415610566578287015190505b61057085826104f5565b8655506105d7565b601f19841661058686610356565b5f5b828110156105ad57848901518255600182019150602085019450602081019050610588565b868310156105ca57848901516105c6601f8916826104d9565b8355505b6001600288020188555050505b505050505050565b611775806105ec5f395ff3fe608060405234801561000f575f5ffd5b506004361061012a575f3560e01c806342966c68116100ab578063a217fddf1161006f578063a217fddf14610352578063a9059cbb14610370578063d5391393146103a0578063d547741f146103be578063dd62ed3e146103da5761012a565b806342966c681461029c57806370a08231146102b857806379cc6790146102e857806391d148541461030457806395d89b41146103345761012a565b8063248a9ca3116100f2578063248a9ca3146101fa5780632f2ff15d1461022a578063313ce5671461024657806336568abe1461026457806340c10f19146102805761012a565b806301ffc9a71461012e57806306fdde031461015e578063095ea7b31461017c57806318160ddd146101ac57806323b872dd146101ca575b5f5ffd5b61014860048036038101906101439190611241565b61040a565b6040516101559190611286565b60405180910390f35b610166610483565b604051610173919061130f565b60405180910390f35b610196600480360381019061019191906113bc565b610513565b6040516101a39190611286565b60405180910390f35b6101b4610535565b6040516101c19190611409565b60405180910390f35b6101e460048036038101906101df9190611422565b61053e565b6040516101f19190611286565b60405180910390f35b610214600480360381019061020f91906114a5565b61056c565b60405161022191906114df565b60405180910390f35b610244600480360381019061023f91906114f8565b610589565b005b61024e6105ab565b60405161025b9190611551565b60405180910390f35b61027e600480360381019061027991906114f8565b6105b3565b005b61029a600480360381019061029591906113bc565b61062e565b005b6102b660048036038101906102b1919061156a565b610667565b005b6102d260048036038101906102cd9190611595565b61067b565b6040516102df9190611409565b60405180910390f35b61030260048036038101906102fd91906113bc565b6106c0565b005b61031e600480360381019061031991906114f8565b6106e0565b60405161032b9190611286565b60405180910390f35b61033c610744565b604051610349919061130f565b60405180910390f35b61035a6107d4565b60405161036791906114df565b60405180910390f35b61038a600480360381019061038591906113bc565b6107da565b6040516103979190611286565b60405180910390f35b6103a86107fc565b6040516103b591906114df565b60405180910390f35b6103d860048036038101906103d391906114f8565b610820565b005b6103f460048036038101906103ef91906115c0565b610842565b6040516104019190611409565b60405180910390f35b5f7f7965db0b000000000000000000000000000000000000000000000000000000007bffffffffffffffffffffffffffffffffffffffffffffffffffffffff1916827bffffffffffffffffffffffffffffffffffffffffffffffffffffffff1916148061047c575061047b826108c4565b5b9050919050565b6060600380546104929061162b565b80601f01602080910402602001604051908101604052809291908181526020018280546104be9061162b565b80156105095780601f106104e057610100808354040283529160200191610509565b820191905f5260205f20905b8154815290600101906020018083116104ec57829003601f168201915b5050505050905090565b5f5f61051d61092d565b905061052a818585610934565b600191505092915050565b5f600254905090565b5f5f61054861092d565b9050610555858285610946565b6105608585856109d9565b60019150509392505050565b5f60055f8381526020019081526020015f20600101549050919050565b6105928261056c565b61059b81610ac9565b6105a58383610add565b50505050565b5f6012905090565b6105bb61092d565b73ffffffffffffffffffffffffffffffffffffffff168173ffffffffffffffffffffffffffffffffffffffff161461061f576040517f6697b23200000000000000000000000000000000000000000000000000000000815260040160405180910390fd5b6106298282610bc7565b505050565b7f9f2df0fed2c77648de5860a4cc508cd0818c85b8b8a1ab4ceeef8d981c8956a661065881610ac9565b6106628383610cb1565b505050565b61067861067261092d565b82610d30565b50565b5f5f5f8373ffffffffffffffffffffffffffffffffffffffff1673ffffffffffffffffffffffffffffffffffffffff1681526020019081526020015f20549050919050565b6106d2826106cc61092d565b83610946565b6106dc8282610d30565b5050565b5f60055f8481526020019081526020015f205f015f8373ffffffffffffffffffffffffffffffffffffffff1673ffffffffffffffffffffffffffffffffffffffff1681526020019081526020015f205f9054906101000a900460ff16905092915050565b6060600480546107539061162b565b80601f016020809104026020016040519081016040528092919081815260200182805461077f9061162b565b80156107ca5780601f106107a1576101008083540402835291602001916107ca565b820191905f5260205f20905b8154815290600101906020018083116107ad57829003601f168201915b5050505050905090565b5f5f1b81565b5f5f6107e461092d565b90506107f18185856109d9565b600191505092915050565b7f9f2df0fed2c77648de5860a4cc508cd0818c85b8b8a1ab4ceeef8d981c8956a681565b6108298261056c565b61083281610ac9565b61083c8383610bc7565b50505050565b5f60015f8473ffffffffffffffffffffffffffffffffffffffff1673ffffffffffffffffffffffffffffffffffffffff1681526020019081526020015f205f8373ffffffffffffffffffffffffffffffffffffffff1673ffffffffffffffffffffffffffffffffffffffff1681526020019081526020015f2054905092915050565b5f7f01ffc9a7000000000000000000000000000000000000000000000000000000007bffffffffffffffffffffffffffffffffffffffffffffffffffffffff1916827bffffffffffffffffffffffffffffffffffffffffffffffffffffffff1916149050919050565b5f33905090565b6109418383836001610daf565b505050565b5f6109518484610842565b90507fffffffffffffffffffffffffffffffffffffffffffffffffffffffffffffffff8110156109d357818110156109c4578281836040517ffb8f41b20000000000000000000000000000000000000000000000000000000081526004016109bb9392919061166a565b60405180910390fd5b6109d284848484035f610daf565b5b50505050565b5f73ffffffffffffffffffffffffffffffffffffffff168373ffffffffffffffffffffffffffffffffffffffff1603610a49575f6040517f96c6fd1e000000000000000000000000000000000000000000000000000000008152600401610a40919061169f565b60405180910390fd5b5f73ffffffffffffffffffffffffffffffffffffffff168273ffffffffffffffffffffffffffffffffffffffff1603610ab9575f6040517fec442f05000000000000000000000000000000000000000000000000000000008152600401610ab0919061169f565b60405180910390fd5b610ac4838383610f7e565b505050565b610ada81610ad561092d565b611197565b50565b5f610ae883836106e0565b610bbd57600160055f8581526020019081526020015f205f015f8473ffffffffffffffffffffffffffffffffffffffff1673ffffffffffffffffffffffffffffffffffffffff1681526020019081526020015f205f6101000a81548160ff021916908315150217905550610b5a61092d565b73ffffffffffffffffffffffffffffffffffffffff168273ffffffffffffffffffffffffffffffffffffffff16847f2f8788117e7eff1d82e926ec794901d17c78024a50270940304540a733656f0d60405160405180910390a460019050610bc1565b5f90505b92915050565b5f610bd283836106e0565b15610ca7575f60055f8581526020019081526020015f205f015f8473ffffffffffffffffffffffffffffffffffffffff1673ffffffffffffffffffffffffffffffffffffffff1681526020019081526020015f205f6101000a81548160ff021916908315150217905550610c4461092d565b73ffffffffffffffffffffffffffffffffffffffff168273ffffffffffffffffffffffffffffffffffffffff16847ff6391f5c32d9c69d2a47ea670b442974b53935d1edc7fd64eb21e047a839171b60405160405180910390a460019050610cab565b5f90505b92915050565b5f73ffffffffffffffffffffffffffffffffffffffff168273ffffffffffffffffffffffffffffffffffffffff1603610d21575f6040517fec442f05000000000000000000000000000000000000000000000000000000008152600401610d18919061169f565b60405180910390fd5b610d2c5f8383610f7e565b5050565b5f73ffffffffffffffffffffffffffffffffffffffff168273ffffffffffffffffffffffffffffffffffffffff1603610da0575f6040517f96c6fd1e000000000000000000000000000000000000000000000000000000008152600401610d97919061169f565b60405180910390fd5b610dab825f83610f7e565b5050565b5f73ffffffffffffffffffffffffffffffffffffffff168473ffffffffffffffffffffffffffffffffffffffff1603610e1f575f6040517fe602df05000000000000000000000000000000000000000000000000000000008152600401610e16919061169f565b60405180910390fd5b5f73ffffffffffffffffffffffffffffffffffffffff168373ffffffffffffffffffffffffffffffffffffffff1603610e8f575f6040517f94280d62000000000000000000000000000000000000000000000000000000008152600401610e86919061169f565b60405180910390fd5b8160015f8673ffffffffffffffffffffffffffffffffffffffff1673ffffffffffffffffffffffffffffffffffffffff1681526020019081526020015f205f8573ffffffffffffffffffffffffffffffffffffffff1673ffffffffffffffffffffffffffffffffffffffff1681526020019081526020015f20819055508015610f78578273ffffffffffffffffffffffffffffffffffffffff168473ffffffffffffffffffffffffffffffffffffffff167f8c5be1e5ebec7d5bd14f71427d1e84f3dd0314c0f7b2291e5b200ac8c7c3b92584604051610f6f9190611409565b60405180910390a35b50505050565b5f73ffffffffffffffffffffffffffffffffffffffff168373ffffffffffffffffffffffffffffffffffffffff1603610fce578060025f828254610fc291906116e5565b9250508190555061109c565b5f5f5f8573ffffffffffffffffffffffffffffffffffffffff1673ffffffffffffffffffffffffffffffffffffffff1681526020019081526020015f2054905081811015611057578381836040517fe450d38c00000000000000000000000000000000000000000000000000000000815260040161104e9392919061166a565b60405180910390fd5b8181035f5f8673ffffffffffffffffffffffffffffffffffffffff1673ffffffffffffffffffffffffffffffffffffffff1681526020019081526020015f2081905550505b5f73ffffffffffffffffffffffffffffffffffffffff168273ffffffffffffffffffffffffffffffffffffffff16036110e3578060025f828254039250508190555061112d565b805f5f8473ffffffffffffffffffffffffffffffffffffffff1673ffffffffffffffffffffffffffffffffffffffff1681526020019081526020015f205f82825401925050819055505b8173ffffffffffffffffffffffffffffffffffffffff168373ffffffffffffffffffffffffffffffffffffffff167fddf252ad1be2c89b69c2b068fc378daa952ba7f163c4a11628f55a4df523b3ef8360405161118a9190611409565b60405180910390a3505050565b6111a182826106e0565b6111e45780826040517fe2517d3f0000000000000000000000000000000000000000000000000000000081526004016111db929190611718565b60405180910390fd5b5050565b5f5ffd5b5f7fffffffff0000000000000000000000000000000000000000000000000000000082169050919050565b611220816111ec565b811461122a575f5ffd5b50565b5f8135905061123b81611217565b92915050565b5f60208284031215611256576112556111e8565b5b5f6112638482850161122d565b91505092915050565b5f8115159050919050565b6112808161126c565b82525050565b5f6020820190506112995f830184611277565b92915050565b5f81519050919050565b5f82825260208201905092915050565b8281835e5f83830152505050565b5f601f19601f8301169050919050565b5f6112e18261129f565b6112eb81856112a9565b93506112fb8185602086016112b9565b611304816112c7565b840191505092915050565b5f6020820190508181035f83015261132781846112d7565b905092915050565b5f73ffffffffffffffffffffffffffffffffffffffff82169050919050565b5f6113588261132f565b9050919050565b6113688161134e565b8114611372575f5ffd5b50565b5f813590506113838161135f565b92915050565b5f819050919050565b61139b81611389565b81146113a5575f5ffd5b50565b5f813590506113b681611392565b92915050565b5f5f604083850312156113d2576113d16111e8565b5b5f6113df85828601611375565b92505060206113f0858286016113a8565b9150509250929050565b61140381611389565b82525050565b5f60208201905061141c5f8301846113fa565b92915050565b5f5f5f60608486031215611439576114386111e8565b5b5f61144686828701611375565b935050602061145786828701611375565b9250506040611468868287016113a8565b9150509250925092565b5f819050919050565b61148481611472565b811461148e575f5ffd5b50565b5f8135905061149f8161147b565b92915050565b5f602082840312156114ba576114b96111e8565b5b5f6114c784828501611491565b91505092915050565b6114d981611472565b82525050565b5f6020820190506114f25f8301846114d0565b92915050565b5f5f6040838503121561150e5761150d6111e8565b5b5f61151b85828601611491565b925050602061152c85828601611375565b9150509250929050565b5f60ff82169050919050565b61154b81611536565b82525050565b5f6020820190506115645f830184611542565b92915050565b5f6020828403121561157f5761157e6111e8565b5b5f61158c848285016113a8565b91505092915050565b5f602082840312156115aa576115a96111e8565b5b5f6115b784828501611375565b91505092915050565b5f5f604083850312156115d6576115d56111e8565b5b5f6115e385828601611375565b92505060206115f485828601611375565b9150509250929050565b7f4e487b71000000000000000000000000000000000000000000000000000000005f52602260045260245ffd5b5f600282049050600182168061164257607f821691505b602082108103611655576116546115fe565b5b50919050565b6116648161134e565b82525050565b5f60608201905061167d5f83018661165b565b61168a60208301856113fa565b61169760408301846113fa565b949350505050565b5f6020820190506116b25f83018461165b565b92915050565b7f4e487b71000000000000000000000000000000000000000000000000000000005f52601160045260245ffd5b5f6116ef82611389565b91506116fa83611389565b9250828201905080821115611712576117116116b8565b5b92915050565b5f60408201905061172b5f83018561165b565b61173860208301846114d0565b939250505056fea2646970667358221220aabb00ae7c7f4c490147451d9f644f7a972f0ecbefa527e82ea7544ff9e201e764736f6c63430008230033","linkReferences":{}},"methodIdentifiers":{"DEFAULT_ADMIN_ROLE()":"a217fddf","MINTER_ROLE()":"d5391393","allowance(address,address)":"dd62ed3e","approve(address,uint256)":"095ea7b3","balanceOf(address)":"70a08231","burn(uint256)":"42966c68","burnFrom(address,uint256)":"79cc6790","decimals()":"313ce567","getRoleAdmin(bytes32)":"248a9ca3","grantRole(bytes32,address)":"2f2ff15d","hasRole(bytes32,address)":"91d14854","mint(address,uint256)":"40c10f19","name()":"06fdde03","renounceRole(bytes32,address)":"36568abe","revokeRole(bytes32,address)":"d547741f","supportsInterface(bytes4)":"01ffc9a7","symbol()":"95d89b41","totalSupply()":"18160ddd","transfer(address,uint256)":"a9059cbb","transferFrom(address,address,uint256)":"23b872dd"},"id":32}